:020000040800F2
:10000000000008246145000819190008B7450008D8
:10001000C9450008DB450008ED4500080000000068
:100020000000000000000000000000008D19000822
:100030008F190008000000009119000893190008AA
:10004000B5450008B5450008B5450008B5450008A8
:10005000B5450008B5450008B5450008B545000898
:10006000B5450008B5450008B5450008B545000888
:10007000B97D0008B5450008B5450008B54500083C
:10008000B5450008B5450008B5450008B545000868
:10009000B5450008B5450008B5450008B545000858
:1000A000B5450008B5450008B5450008B545000848
:1000B000B5450008B5450008B5450008B545000838
:1000C000B5450008B5450008B5450008B545000828
:1000D000B5450008B5450008B5450008B545000818
:1000E000B5450008B545000800000000B54500080A
:1000F000B5450008B5450008B5450008B5450008F8
:10010000B5450008B5450008B5450008B5450008E7
:10011000B5450008B5450008B5450008B5450008D7
:10012000B5450008B5450008B5450008B5450008C7
:10013000B5450008B5450008B5450008B5450008B7
:1001400000000000000000000000000000000000AF
:10015000B5450008B5450008B5450008B545000897
:10016000B5450008B5450008B5450008B545000887
:10017000B5450008B5450008B5450008B545000877
:10018000B5450008B5450008B5450008B545000867
:10019000AD7D0008B5450008B5450008B545000827
:1001A000B5450008B5450008B5450008B545000847
:1001B000B5450008B5450008B5450008B545000837
:1001C000B5450008B5450008B5450008B545000827
:1001D000B545000815870008B5450008B545000875
:1001E000B5450008B5450008B5450008B545000807
:1001F000B5450008B5450008B5450008B5450008F7
:10020000B5450008B5450008B5450008B5450008E6
:10021000B5450008B5450008B5450008B5450008D6
:10022000B5450008B5450008B545000800000000C8
:10023000B5450008B545000800000000B5450008B8
:10024000B5450008B5450008B5450008B5450008A6
:10025000B5450008B5450008B5450008B545000896
:10026000B5450008B5450008B5450008B545000886
:10027000B5450008B5450008B54500080000000078
:10028000B5450008B5450008B54500080000000068
:0802900000000000B545000864
:1004000020524556563236303833305233000000D1
:1004100000000000000000000000000000000000DC
:100420000000000057454143542D483735302D42D8
:100430004F4F5400000000000000000000000000CA
:0C044000000000000000000800000000A8
:1008000053B94AB9002908BF00281CBF4FF0FF3177
:100810004FF0FF3000F00CB8ADF1080C6DE904CEDC
:100820000FF046F9DDF804E0DDE9022304B070477B
:10083000704700BF10F8012B11F8013B012A28BFB7
:100840009A42F7D0D01A7047034613F8012B002ABA
:10085000FBD1181A013870470000000000000000AA
:1008600001F0FF01102A2BDB10F0070F08D010F861
:10087000013B013A8B422DD010F0070F42B3F6D165
:10088000F0B441EA012141EA014122F007047FF07E
:1008900000070023F0E80256083C85EA010586EAD5
:1008A000010685FA47F5A3FA87F586FA47F6A5FA11
:1008B00087F68EB9EED1F0BC01F0FF0102F007021D
:1008C00032B110F8013B013A83EA010313B1F8D1C8
:1008D0000020704701387047002D06BF35460338A9
:1008E000073815F0010F07D1013015F4807F02BFE2
:1008F000013015F4C03F0130F0BC0138704700BF33
:1009000081F0004102E000BF83F0004330B54FEAC0
:1009100041044FEA430594EA050F08BF90EA020F2D
:100920001FBF54EA000C55EA020C7FEA645C7FEAC0
:10093000655C00F0E2804FEA5454D4EB5555B8BFE3
:100940006D420CDD2C4480EA020281EA030382EA54
:10095000000083EA010180EA020281EA0303362DE6
:1009600088BF30BD11F0004F4FEA01314FF4801CB9
:100970004CEA113102D0404261EB410113F0004FCB
:100980004FEA03334CEA133302D0524263EB430382
:1009900094EA050F00F0A780A4F10104D5F1200E20
:1009A0000DDB02FA0EFC22FA05F2801841F100017B
:1009B00003FA0EF2801843FA05F359410EE0A5F14F
:1009C00020050EF1200E012A03FA0EFC28BF4CF080
:1009D000020C43FA05F3C01851EBE37101F0004536
:1009E00007D54FF0000EDCF1000C7EEB00006EEB43
:1009F0000101B1F5801F1BD3B1F5001F0CD34908CD
:100A00005FEA30004FEA3C0C04F101044FEA445223
:100A100012F5800F80F09A80BCF1004F08BF5FEAAA
:100A2000500C50F1000041EB045141EA050130BD8A
:100A30005FEA4C0C404141EB0101013C28BFB1F59C
:100A4000801FE9D291F0000F04BF01460020B1FAE7
:100A500081F308BF2033A3F10B03B3F120020CDABA
:100A60000C3208DD02F1140CC2F10C0201FA0CF098
:100A700021FA02F10CE002F11402D8BFC2F1200CFD
:100A800001FA02F120FA0CFCDCBF41EA0C019040B3
:100A9000E41AA2BF01EB0451294330BD6FEA0404FC
:100AA0001F3C1CDA0C340EDC04F11404C4F12002E7
:100AB00020FA04F001FA02F340EA030021FA04F3F9
:100AC00045EA030130BDC4F10C04C4F1200220FA50
:100AD00002F001FA04F340EA0300294630BD21FA8E
:100AE00004F0294630BD94F0000F83F4801306BF54
:100AF00081F480110134013D4EE77FEA645C18BF48
:100B00007FEA655C29D094EA050F08BF90EA020FDE
:100B100005D054EA000C04BF1946104630BD91EAD6
:100B2000030F1EBF0021002030BD5FEA545C05D1D9
:100B30004000494128BF41F0004130BD14F5800418
:100B40003CBF01F5801130BD01F0004545F0FE418C
:100B500041F470014FF0000030BD7FEA645C1ABFC1
:100B6000194610467FEA655C1CBF0B46024650EAF8
:100B7000013406BF52EA033591EA030F41F4002124
:100B800030BD00BF90F0000F04BF0021704730B5AA
:100B90004FF4806404F132044FF000054FF000017F
:100BA00050E700BF90F0000F04BF0021704730B540
:100BB0004FF4806404F1320410F0004548BF404215
:100BC0004FF000013EE700BF42004FEAE2014FEA6A
:100BD00031014FEA02701FBF12F07F4393F07F4F45
:100BE00081F06051704732F07F4208BF704793F048
:100BF0007F4F04BF41F40021704730B54FF460745B
:100C000001F0004521F000411CE700BF50EA01025D
:100C100008BF704730B54FF000050AE050EA010206
:100C200008BF704730B511F0004502D5404261EB76
:100C300041014FF4806404F132045FEA915C3FF4B7
:100C4000D8AE4FF003025FEADC0C18BF03325FEA54
:100C5000DC0C18BF033202EBDC02C2F1200300FA05
:100C600003FC20FA02F001FA03FE40EA0E0021FA2A
:100C700002F11444BDE600BF0348044B834202D096
:100C8000034B03B1184770479812002498120024B0
:100C9000000000000548064B1B1AD90F01EBA30109
:100CA000491002D0034B03B1184770479812002433
:100CB000981200240000000010B5064C237843B9B8
:100CC000FFF7DAFF044B13B10448AFF300800123B0
:100CD000237010BDA0120024000000002829010884
:100CE00008B5054B1BB105490548AFF30080BDE8C9
:100CF0000840FFF7CFBF00BF00000000A41200248F
:100D000028290108002310B50446C0E90033C0E9D2
:100D10000433836081814366C2818361194608225E
:100D20005C3000F0B3F80D4B63620D4BA3620D4BCA
:100D3000E3620D4B23630D4B24629C4206D003F10A
:100D40006802944202D0D0339C4205D104F158008D
:100D5000BDE8104000F0C6B810BD00BF9D110008EE
:100D6000BF110008F71100081D120008BC12002472
:100D7000024A0349034800F06BB800BF000000249A
:100D8000351100081000002441680C4B994210B541
:100D9000044601D000F0CEF9A168094B994202D077
:100DA000204600F0C7F9E168064B994204D020467E
:100DB000BDE8104000F0BEB910BD00BFBC12002459
:100DC000241300248C1300240C4B0D4A0D4810B53D
:100DD00004211A600022FFF795FF0A4B01221C46EE
:100DE000092103F16800FFF78DFF04F1D000022212
:100DF000BDE810401221FFF785BF00BFF4130024A7
:100E0000710D0008BC120024014800F06CB800BF4E
:100E1000F9130024014800F067B800BFF91300245B
:100E200010B50446FFF7F0FF236A1BB1BDE8104080
:100E3000FFF7F0BF044B2362044B1B68002BF5D176
:100E4000FFF7C2FFF2E700BF890D0008F41300248A
:100E50002DE9F8430746884614460026D4E9019553
:100E6000B9F1010905D52468002CF7D13046BDE859
:100E7000F883AB89012B07D9B5F90E30013303D0C4
:100E800029463846C04706436835E9E70244034629
:100E9000934200D1704703F8011BF9E770B50D4B81
:100EA0000D4D5B1B9C100026A64209D111F03CFDA4
:100EB0000A4D0B4B5B1B9C100026A64205D170BD52
:100EC00055F8043B98470136EEE755F8043B984740
:100ED0000136F2E7C0730108C0730108C07301084E
:100EE000C4730108704770477047000070B50F4E1B
:100EF0000C463168054611B900F0B8F9306021465A
:100F0000284600F0B3F9431C03D14FF0FF342046CC
:100F100070BDC41C24F00304A042F8D0211A284656
:100F200000F0A4F90130F2D1EFE700BFFC13002478
:100F30002DE9F843CD1C25F0030508350C2D38BFED
:100F40000C25002D064601DBA94204D90C23336091
:100F50000020BDE8F883DFF8D48000F013F9D8F85A
:100F600000301C4644BB29463046FFF7BFFF431CF8
:100F7000044658D1D8F800402746002F43D1002C12
:100F80004BD023683946304604EB030900F06EF974
:100F9000814542D121686D1A29463046FFF7A6FFE8
:100FA00001303AD023682B442360D8F800305A68C7
:100FB00062BBC8F800700FE02268521B20D40B2AD5
:100FC00017D96119A342256018BF5960636808BF2B
:100FD000C8F8001062514B60304600F0D9F804F1B7
:100FE0000B00231D20F00700C21A1CBF1B1AA350C0
:100FF000AFE76268A3420CBFC8F800205A60EBE775
:1010000023466468AEE73C467F68B6E71A465B68ED
:10101000A342FBD100235360DEE70C23336030464C
:1010200000F0B6F894E70560D6E700BF001400248E
:10103000B1F90C202DE9F041160705460C4651D4B4
:101040004B68002B02DC0B6C002B49DDE66A002E9E
:1010500046D0002312F480522F682B6031D0626D8D
:10106000A389590705D56368D21A636B0BB1236C4A
:10107000D21A0023E66A216A2846B047421CB4F916
:101080000C3006D129681D2946D8294ACA40D607FE
:1010900042D500226260D9042269226004D5421C34
:1010A00001D12B6803B96065616B2F60C1B104F198
:1010B0004403994202D0284600F00AF900236363F2
:1010C0000EE0216A01232846B0470246501CC7D1D2
:1010D0002B68002BC4D01D2B01D0162B1AD12F60EA
:1010E00000201EE00F69002FFAD093070E6808BF9A
:1010F0004B690F6018BF0023A6EB07088B60B8F19F
:10110000000FEDDD216AA66A43463A462846B047FD
:10111000002808DCB4F90C3043F04003A3814FF001
:10112000FF30BDE8F0810744A8EB0008E7E700BF07
:101130000100402038B50B6905460C4613B900255F
:10114000284638BD18B1036A0BB9FFF769FEB4F938
:101150000C30002BF3D0626ED00704D4990502D472
:10116000A06DFFF7C0FE28462146FFF761FF636EC2
:10117000DA070546E4D4A3899B05E1D4A06DFFF707
:10118000B3FEDDE70148FFF7AEBE00BFF813002451
:101190000148FFF7A9BE00BFF813002410B50C46A4
:1011A000B1F90E1000F050F80028ABBF636DA389B1
:1011B0001B1823F48053ACBF6365A38110BD2DE9D8
:1011C000F0411F468B89DB0505460C46164605D5C2
:1011D000B1F90E100223002200F024F8A389B4F91B
:1011E0000E1023F48053A38132463B462846BDE8C7
:1011F000F04100F04BB810B50C46B1F90E1000F0FC
:1012000011F8B4F90C30421C0BBF23F4805343F4A3
:101210008053A381A38118BF606510BDB1F90E1082
:1012200000F046B838B5074D04460846114600227E
:101230002A601A4600F0E3FB431C02D12B6803B17D
:10124000236038BD0414002438B5074D0446084611
:10125000114600222A601A4600F0B2FB431C02D15C
:101260002B6803B1236038BD0414002438B5064D43
:101270000023044608462B6000F0C4FB431C02D147
:101280002B6803B1236038BD0414002438B5074D22
:1012900004460846114600222A601A4600F09EFBCA
:1012A000431C02D12B6803B1236038BD0414002411
:1012B00038B5064D0023044608462B6000F095FB28
:1012C000431C02D12B6803B1236038BD04140024F1
:1012D00038B50546002941D051F8043C0C1F002BBD
:1012E000B8BFE418FFF74EFF1D4A136833B96360B7
:1012F00014602846BDE83840FFF74ABFA34208D92A
:10130000206821188B4201BF19685B6809182160A9
:10131000EDE71A465B680BB1A342FAD91168501881
:10132000A0420BD120680144501883421160E0D1E3
:1013300018685B68536008441060DAE702D90C2330
:101340002B60D6E7206821188B4204BF19685B68C0
:10135000636004BF091821605460CAE738BD00BF4C
:101360000014002410B50A4C00F0B9FA2368C01A22
:10137000632805D900F0B3FA2060002005F00EF9CB
:1013800007F02AF902F0F2FCBDE8104001F0E6BDDA
:10139000081400242DE9FF4701F042FC01F0B8FBDE
:1013A000064606F0BBF810F001041BBF0127C0F38E
:1013B0004004A146DFF8388112BFB9460227DFF8A2
:1013C000348106F0B1F8012881BF01240027DFF83D
:1013D0002881A14606F0CAF8054604F075F8824651
:1013E000002849D115B1554606F0E3F826B9012485
:1013F0000227DFF80881A146314805F0CBF9314BCF
:101400000DF1100C0FCB0CE90F000CEB86032E48EE
:1014100053F8101C05F0BEF925B1032229462B48CC
:1014200005F0B8F92A4DDFF8D8A0B9F1000F2BD09C
:10143000284B4146284A2948002C08BF1A4605F087
:10144000A9F92C70CAF8007029789AF8000003F006
:1014500005F802F0E5FA287802F0C6FD2878013098
:10146000C0B207F011F803F025FE01F04DFD04B005
:10147000BDE8F04702F004BA022D81BF04460327FD
:10148000DFF88080A146B1E7022E12D101F0DAFB2D
:1014900001F03CFC04460146114805F07BF90123AC
:1014A00010482B70104B152C18BF184602F0F4FF93
:1014B000CAE7012EECD10D4805F06CF9E8E700BF52
:1014C000F229010840290108012A0108122A01080D
:1014D0000C140024D5290108D2290108262A010864
:1014E0006F2A0108D9290108E8290108402A0108C2
:1014F000A2290108BD2F0108AE290108C62901084B
:101500005C000024BB29010808B502F019FAFCE7C9
:1015100008B5002002F082F902F012FA0120BDE8BD
:10152000084002F07BB90000BB4B5A6912F400324C
:101530002DE9F041C2B011D1BFF34F8FBFF36F8FD0
:10154000C3F85022BFF34F8FBFF36F8F5A6942F435
:1015500000325A61BFF34F8FBFF36F8FAE4A5369AA
:1015600013F4803323D1C2F88430BFF34F8FD2F805
:10157000803043F6E074C3F3C900C3F34E335B011C
:1015800003EA0406014646EA81750139C2F8605251
:10159000F9D2203B13F1200FF2D1BFF34F8F5369E3
:1015A00043F480335361BFF34F8FBFF36F8F07F066
:1015B000BBF94C22002112A8FFF768FC2022002171
:1015C0000AA8FFF763FC022008F0BEFB0023099382
:1015D000924BDA6A22F00102DA62DB6A03F001035D
:1015E00009938F4B9A6942F440429A619A6902F4D6
:1015F00040420992099A9A699204FCD5894C08F0F4
:101600009BFB07F0E3F94FF48037236F4FF0050E93
:101610000225012623F018034FF0080812A82367BB
:101620002523149618961F95CDF88880CDE912379A
:10163000A023CDE91DE30023CDE91B55CDE920858D
:10164000CDE9233308F0D4FE08B172B6FEE74FF0BF
:101650003F0C03234FF480622946CDE90AC340239F
:10166000CDE90C080AA8CDE90E33CDE9102309F025
:1016700009FA014608B172B6FEE7B82214A8FFF7CE
:1016800005FC4FF01172002312A8CDE912234FF48C
:10169000401334934FF480733F9309F04BFC05469D
:1016A00008B172B6FEE7D4F8DC300146102212A869
:1016B00043F00053C4F8DC30D4F8DC3003F00053BE
:1016C0000093009BD4F8DC3043F08043C4F8DC3056
:1016D000D4F8DC3003F080430193019BD4F8DC3074
:1016E00043F00043C4F8DC30D4F8DC3003F00043AE
:1016F0000293029BD4F8F43043F00203C4F8F430B0
:10170000D4F8F43003F002030393039BD4F8E030E1
:1017100043F00103C4F8E030D4F8E03003F00103F3
:101720000493049BD4F8E03043F00203C4F8E030A3
:10173000D4F8E03003F002030593059BD4F8E030C1
:1017400043F00403C4F8E030D4F8E03003F00403BD
:101750000693069BD4F8E03043F00803C4F8E03069
:10176000D4F8E03003F008030793079BD4F8E03087
:1017700043F01003C4F8E030D4F8E03003F0100375
:101780000893089BD4F8E03043F08003C4F8E030BD
:10179000D4F8E03040F2011403F080030A930A9B6E
:1017A000FFF774FB07F0A2F948F21F7312A8ADF817
:1017B00048601395CDE9143407F0B6F94FF0105294
:1017C000194B12A8ADF84840CDE913234FF001138F
:1017D000159307F0A9F940F201234FF0405112A8E8
:1017E0001594ADF84830114BCDE9131307F09CF96F
:1017F00040F601734FF010401597ADF848300C4B90
:10180000CDE9130312A807F08FF9042007F07CF943
:10181000304642B0BDE8F08100ED00E00004005821
:10182000004802580044025812000003120001034D
:101830001600000300224FF0FF3170B5930003F152
:10184000604303F56143C3F88010C3F88011BFF310
:101850004F8FBFF36F8F0132082AEFD14FF0E02294
:10186000002313615361936102F55062C2F8843022
:10187000BFF34F8FD2F8803043F6E074C3F3C90052
:10188000C3F34E335B0103EA0406014646EA817561
:101890000139C2F87452F9D2203B13F1200FF2D172
:1018A000BFF34F8FBFF36F8FBFF34F8FBFF36F8FB8
:1018B0000023C2F85032BFF34F8FBFF36F8F012068
:1018C00070BD38B5044607F069F8054607F066F8BC
:1018D000431BA34200D338BDFFF71AFEF6E707F01B
:1018E0005DB872B6FEE70000064B074A996A1160C0
:1018F000064AD96A1160064A596B11609A6B054B0A
:101900001A60704700ED00E00C0000200800002085
:101910000400002000000020BFF34F8F0549064B54
:10192000CA6802F4E0621343CB60BFF34F8F00BF7D
:10193000FDE700BF00ED00E00400FA0508B5FFF781
:10194000D3FF0146014803F071FDFEE7A12A01081B
:1019500008B5FFF7C9FF0146014803F067FDFEE740
:10196000AB2A010808B5FFF7BFFF0146014803F0A5
:101970005DFDFEE7B52A010808B5FFF7B5FF014692
:10198000014803F053FDFEE7BE2A01087047704787
:10199000704708B506F0F6FFBDE8084003F060BBED
:1019A0000120704708B50FF043F9162303604FF08C
:1019B000FF3008BD08B50FF03BF916230360FEE7C2
:1019C00070B50D4614460E46731B9C4201DC204642
:1019D00070BDAFF3008006F8010BF5E710B51446B3
:1019E000002006F0DDFB204610BD4FF0FF307047B1
:1019F0004FF4005300204B607047012070470020D7
:101A0000704700000A4A0346106810B508B9094833
:101A1000106009490344094C091B8B4206D90FF099
:101A200007F90C2303604FF0FF3010BD1360FCE793
:101A3000101400244082002400000824001000003C
:101A40002E4AD2F8883043F47003C2F888302C4A0A
:101A5000136803F00F03062B05D8136823F00F0358
:101A600043F007031360274B1A6842F001021A6023
:101A700000221A61244A19680A4021491A600A683A
:101A8000100705D50A6822F00F0242F007020A602B
:101A900000221E499A61DA611A6299621C49D96270
:101AA0001C4919635A639963DA6319645A641968A3
:101AB00021F4802119601A66174B1B686FF30F031E
:101AC000B3F1005F03D2154B0122C3F808210D4B7F
:101AD000D3F8D420D2040FD4D3F8D42043F2D201C7
:101AE00042F48052C3F8D4200D4A1160D3F8D420B8
:101AF00022F48052C3F8D420704700BF00ED00E00C
:101B000000200052004402587FEDF6EA0002020273
:101B10000000FF01800201010010005C0080005104
:101B200000400052704708B5FFF7FEFC06F056FE75
:101B3000FFF730FCFFF7E8FC002008BD284B70B52C
:101B400003EB001501F00F042E7AA64208D84FF0DF
:101B5000E023D3F8F03DD90700D500BE002070BDCA
:101B600000F1FF3CDCF1000040EB0C00C9094FEA3A
:101B70000010185802F103034FEA93030FD1C3F387
:101B80000D03426A083333445B009BB29A4204D28D
:101B9000144A92889A42DAD343620120DFE76D7AD1
:101BA000104925B18A799542D1D901328A7182686A
:101BB000456A12068A885CBF5B009BB21D44AA423C
:101BC000C5D3D21A92B242EA03438A800CB9836227
:101BD000E3E704F13F0200EB82004360DDE700BF72
:101BE000E03E01084014002400F1FF3C0C4BDCF106
:101BF000000141EB0C010901595803EB00131A7A5B
:101C0000DB6818329B0852004A628A6C054A93804E
:101C10001A0412FA83F34022CB658021FFF78EBFAE
:101C2000E03E010840140024431E58425841224B14
:101C3000F0B500018E78214F1C5806F00F008B88FC
:101C4000F5094FEA400CD4F808E8C3F30A030CEB9B
:101C5000D6121EF0060FAC4407EB021208BF4FF07D
:101C6000010E07EB0C17538143F400438A7902BF3E
:101C700002F1FF320EFA02F2D2B23A73CA7802F0DF
:101C800003014A1E43EA814318BF012243EA02735B
:101C90000DB166F3995385F0010500EB051202F1D1
:101CA0004801490163500123D4F81C1893400B43A9
:101CB000C4F81C38F0BD00BFE03E01084814002401
:101CC00000F1FF3C334B5205DCF1000040EB0C000F
:101CD00030B5000101F00F04C9091B584FEA441147
:101CE00003EB01002CD0D0F80059002D0EDBD0F80A
:101CF00000190A4342F00062C0F80029A40144F030
:101D000020041C611A699506FCD430BDD0F8005936
:101D100045F00065C0F80059D0F808596D06FBD5AC
:101D2000D0F8005919442A4342F08042C0F80029F3
:101D3000D1F808299207FBD50222C1F80829DDE76E
:101D4000D0F8005B002D00DA2CB9D0F8003B13432B
:101D5000C0F8003BD9E7D3F8044844F40074C3F852
:101D600004485C692406FCD5D0F8004B1944224392
:101D700042F08042C0F8002BD1F8082B9207FBD527
:101D80000222C1F8082BD3F8042842F48062C3F879
:101D90000428BAE7E03E0108431E2DE9F74F5842F8
:101DA0004FF00007214D0C465841214B4FEA411A94
:101DB0003E460001DFF87CB005EB411553F800808A
:101DC00008EB4113D3F81039C3F3C9494B1C08EB96
:101DD00003330093BBB2994503D8304603B0BDE846
:101DE000F08F08EB0A016B8BD1F8102992B2934265
:101DF00028BF1346D1F818290BEA82029342ECD887
:101E00001E446869B6B228B11A4600990BF062FE0A
:101E10000137DFE72A6921464046019300F0FBFDC8
:101E20002A69019B1A442A61F2E700BF4814002482
:101E3000E03E0108FCFF030000F1FF3CF8B5DCF1D7
:101E4000000314462E4A0E4643EB0C031B01D558E3
:101E500084F00102002942D12A4F37F81430402B78
:101E6000194628BF40215B1A27F814300123C3F319
:101E7000090306EB021241EAC34305EB4212C2F822
:101E80001039D2F800391F46C3F3076CC7F3074770
:101E90006CF07B0C07F00C076CF31F63042F07D169
:101EA000D5F80878FF054CBF43F0805343F000534A
:101EB000012CAF6CC2F8003910D179B13146FFF76F
:101EC0006BFF5EB1104B03EB46131B8B834205DDAA
:101ED000D5F83438B4401C43C5F83448F8BD04EB99
:101EE0004101094B03EB01135F891989CB19013BB0
:101EF000B3FBF7F39BB2012B38BF0123B7E700BF59
:101F0000E03E010840140024481400242DE9F04F5D
:101F10000F46411E594A89B04B424FEA0718054601
:101F2000DFF864914B4188F0100800241B01D6585B
:101F3000B36CB36CC3F38323013303935FFA88F369
:101F4000029387F0010306EB432303F5106301932B
:101F5000029AD6F818382244D340DA0733D5019BC9
:101F6000012F5FFA84FA03EB44124FEA441BD2F8C4
:101F70000880C2F808805FFA88F242D1D30708D5FA
:101F80005CBB3F4A528842B33A4621462846FFF797
:101F900053FF18F0800F16D0D6F83438E340D80736
:101FA00011D5B34451462846FFF7F6FEDBF8103949
:101FB000C3F312033BB90122D6F83438A24023EA16
:101FC0000203C6F834380134039A09F12009E3B258
:101FD0009A42BDD809B0BDE8F08F0721B9F81820A2
:101FE00005A88DF814508DF815106AF07F0107923E
:101FF00000228DF8181001218DF819200BF0B4FE85
:10200000C7E7110718D5D6F80039002B04DA0022EB
:1020100080212846FFF754FE06238DF814508DF8D2
:102020001530184B93E8030008AB03E903000121C6
:1020300005A80BF099FEC6E7D307C4D528F4FF43E3
:1020400023F05F039BB2002BBDD144B90C4B1B881E
:102050002BB1224621462846FFF7EEFEB3E7B9F83A
:10206000083007228DF81450079300238DF81520AF
:102070008DF818A08DF81930D9E700BFE03E0108AF
:10208000401400242014002448140024084B03EBBF
:102090000013B3F90430002B08DB0122590903F0C7
:1020A0001F0302FA03F3034A42F82130704700BFCE
:1020B000E03E010800E100E00A4B03EB0013B3F936
:1020C0000430002B0DDB5A09012103F01F03994056
:1020D00002F12003044A42F82310BFF34F8FBFF3ED
:1020E0006F8F7047E03E010800E100E0431E584258
:1020F0005841054B00011A58D2F8043823F0020366
:10210000C2F80438704700BFE03E0108431E584241
:102110005841054B00011A58D2F8043843F0020325
:10212000C2F80438704700BFE03E0108421E01219A
:10213000F8B553424FF0000605465341244A1B01AF
:10214000D458244B20461E605E6000F0A3FB32464C
:10215000014607462846A36C00F0A8FB064640B996
:102160004FF0E023D3F8F03DDB0700D500BE30464A
:10217000F8BDD4F800383FB3A26C23F0030302F09B
:10218000C002802A01D143F4804343F0040328466F
:10219000C4F80038FFF7BAFFE368284623F0C043CD
:1021A00043F08043E360236823F0D00343F0C0038F
:1021B0002360094BA2691343A361A36843F0810321
:1021C000A360FFF793FFD2E743F00303DDE700BF0F
:1021D000E03E01084014002404300080431E094AF8
:1021E0005842D1715841084B00011B5831B10822A7
:1021F0005A619A6942F008029A6170479A6922F01E
:102200000802F9E740140024E03E010870B58A880E
:102210000C4689780646C2F30A02FFF78FFC054692
:1022200040B94FF0E023D3F8F03DDB0700D500BE06
:10223000284670BD21463046FFF7F6FCF8E700005F
:10224000411E4A424A41F8B51201224B05469C58AC
:1022500003EB001300201F7A0BF0B2FE1E4B002090
:102260001E4A012198714FF00113C4F81C38CBB2FB
:102270009F421AD904EB4113D3F80069002E05DA06
:10228000D3F8006946F09046C3F80069D3F8006BB4
:102290005087002E05DAD3F8006B46F09046C3F85D
:1022A000006B508501312032E1E74FF484632361F4
:1022B00023699B06FCD410232361266916F01006BF
:1022C000FBD12846FFF790FC3046BDE8F8400BF004
:1022D00085BE00BFE03E01084014002448140024DD
:1022E0002DE9F84F9DF8288001F00F0ACC09074628
:1022F00040469346994604EB4A050BF061FE104BAD
:102300002A0103EB05156E899EB143F802B0002344
:10231000A5F808906B602B7B6B73BAF1000F02D1AC
:10232000084B23F814900126224651463846FFF701
:1023300083FD40460BF052FE3046BDE8F88F00BFEB
:10234000481400244014002407B5421E5342534150
:10235000094A1B01D258D2F8003823F4FE6343EA3D
:1023600001138021C2F8003800231A460093FFF7BA
:10237000B7FF03B05DF804FBE03E0108421E38B52C
:1023800053420C465341054A1B01D5580122FFF721
:1023900097FC210700D1AB6C38BD00BFE03E0108BF
:1023A000431E58425841CB0901F00F0183F001034D
:1023B000000101EB0311084B1B5803EB4113D3F849
:1023C000002922F40012C3F80029D3F8002942F0B2
:1023D0008052C3F800297047E03E0108411EB94A07
:1023E0004B424B411B012DE9F04FD458054687B0B5
:1023F000A36966691E40F00473D54FF48053012031
:1024000063610BF0DDFDA76C4FF490720021C7F300
:102410008327AD48FEF73AFD0023AC4A0137D3804D
:1024200004EB43110133D1F8002B42F00062C1F8F4
:10243000002BDAB2BA42F3D3002304EB4312D2F8F2
:102440000019002905DAD2F8001941F09041C2F8CC
:1024500000190133DAB29742EFD84FF00113C4F8F4
:102460001C380923C4F81438C4F810384FF48463B6
:10247000236123699A06FCD410232361276917F08E
:102480001007FBD12846FFF7AFFBD4F800384022F5
:10249000012067F30A13C4F80038D4F8003923F098
:1024A0000303C4F80039D4F8003B23F00303C4F855
:1024B000003BD4F80039C4F80039D4F8003BC4F824
:1024C000003B814B5A835A81A36CD4F8103B43F0F4
:1024D000C043C4F8103BA36943F4E013A3610BF0BD
:1024E0007DFDB3041ED54FF4005363614FF40063C8
:1024F0006361A36943F40063A361D4F8082812F070
:10250000060FC2F3410300F0CA809F1E7B427B414D
:10251000012103A88DF80C508DF80D108DF81030A6
:102520000BF022FC30050FD54FF40063012103A806
:102530006361A36923F40063A36104238DF80C5045
:102540008DF80D300BF010FC002E0FDA4FF0004329
:10255000012103A86361A36943F40063A361052318
:102560008DF80C508DF80D300BF0FEFB71070CD57B
:1025700067687A0708D50223012103A88DF80C505B
:102580008DF80D300BF0F0FB676033071AD5082388
:102590004E4A6361A369D27943F40063A361D4F81E
:1025A0000838C3F30D231AB9A26922F00802A26108
:1025B0000322012103A88DF80C508DF80D200493FF
:1025C0000BF0D2FBF70619D5A36904F5805ADFF8A2
:1025D000F8B023F01003A361276AC7F3434207F062
:1025E0000F09042A65D0062A5BD0022A76D06269D8
:1025F000D006F1D4A36943F01003A361310303D5DE
:1026000000212846FFF782FC720303D501212846EA
:10261000FFF77CFCF3023FD54FF480132A4E4FF0B6
:102620000008DFF8B4A0636148F2040BD4F808385E
:10263000A76CC3F30029C7F38327013704EB4811C4
:10264000D1F800390AEA13425A451ED1C3F30042B9
:102650004A451AD1727F002A70D0013AB6F818C0E4
:102660007277728B0CEB02000138B0FBF2F0184A63
:1026700002EAC04242EA0C02C1F81029B9F1000F87
:1026800059D043F08053C1F8003908F101082036D1
:102690005FFA88F3BB42D1D307B0BDE8F08F0223C5
:1026A00036E7DAF800200B4B1A60DAF800205A609F
:1026B0009DE704EB4919D9F8102B42F0C042C9F844
:1026C000102B94E7E03E0108481400244014002435
:1026D0000000F81F201400240C80FFFFC7F30A1726
:1026E0004FEA491847B10BEB080250683A46B8B1B7
:1026F00004F580510BF02DFA0BEB08025189B94219
:102700007FF675AFA0441189D8F8100B091A118112
:10271000B9F1000F7FF46BAF154AA2F8009066E79D
:102720005BF80810204600F057F95BF808203A449F
:102730004BF80820E0E743F00053A4E768F07F017E
:102740002846C9B2CDE90012FFF7BAFA009907236B
:10275000019A8DF81010012103A88DF80C508DF806
:102760000D3005928DF811100BF0FEFA8DE700BFC9
:10277000401400240369002BFCDA036C02699BB24D
:1027800042F00102026144F20922934206D8036931
:10279000DA07FCD40369002BFCDA704703699B005D
:1027A000FCD5036923F0005323F0010343F00053E9
:1027B0000361EFE7836BB1B943F4803383630C4B60
:1027C000984207D10B4AD2F8003123F08053C2F867
:1027D00000317047084B984208D1064AD2F80031C0
:1027E00023F08063F3E723F480338363704700BFF3
:1027F0000000084000440258000004401D4B1E4ADF
:102800001B68934226D21D4A934225D81C4A934204
:1028100024D21C4A934223D8A2F5DB12A2F5BA5265
:1028200093421FD8A2F5B712A2F5587293421BD853
:10283000154A93421AD2154A934219D2144A934226
:1028400034BF0F230E23C26822F4705242EA83235E
:10285000C36070470623F6E70723F4E70823F2E78F
:102860000923F0E70A23EEE70B23ECE70C23EAE762
:102870000D23E8E7640000240048E801DF9DA30180
:1028800000366E013FA44C01807306010024F40061
:10289000C0E1E400012906D0806CC0B23F2894BF9B
:1028A000002001207047002070470000F8B5441E4A
:1028B000464B1646464A6042604100011C58236C54
:1028C0006FF30F03934214D0424A934211D002F5A2
:1028D000803293420DD04FF0E023D3F8F02DD10792
:1028E00000D500BED3F8F03DDA0700D500BE0020C9
:1028F000F8BDA36823F00103A360E568002951D067
:10290000A16C236DC3F30723402B01F0C00334BF38
:1029100008271027802B3CD125F4681525F0C80521
:1029200045F010052046E560C1F3811125F470558E
:10293000FFF740FFFFF71EFF102F14BF4FF4105397
:102940004FF4A0531D43E56009B9FFF757FFE36853
:1029500043F00703E360D4F8003E23F00F03C4F80C
:10296000003E4FF48463236123699B06FCD410234B
:102970002361236913F01003FBD14FF0FF32626132
:102980006260A361E6B1A36843F02603A36001205F
:10299000AEE7102F0ABF25F0500525F0580545F089
:1029A0000805BFE745F0400325F47055204645F47F
:1029B000A255E360FFF7FEFEFFF7DCFEE560C4E72B
:1029C000A36943F01003A361E1E700BF003F0108E2
:1029D0000000544F00003155F0B595080B4600F546
:1029E000805601EB8504A34211D1D6B212F0030246
:1029F0000CD000F58050036801F82530B10744BFC2
:102A0000190A6170032A04BF1B0CA370F0BD37685C
:102A100043F8047BE7E7F0B501319D0814460E0347
:102A200002EB850700EB0131BC4209D1D9B213F0AA
:102A3000030304D0890708D412F825208251F0BD81
:102A400054F804CBC1F800C0EEE7032B32F8252080
:102A500004BFA37842EA0342F0E7000007B5002074
:102A600004F0FAF9082269464FF4805004F082F825
:102A7000F0B1009B03F16042B2F5003F0ED903F1C3
:102A80005C42B2F5002F09D903F15042B2F5902F04
:102A900004D903F14843B3F5803F0CD80198074BA4
:102AA000984208D910F1DF4F2CBF002301231840B2
:102AB00003B05DF804FB0020FAE700BFFF0F0090B1
:102AC0002DE9F0410024C0B0064600202546884686
:102AD00004F0C2F9A64204D8A8F8005040B0BDE8FE
:102AE000F081371B694604F58050B7F5807F28BF19
:102AF0004FF480773A4604F03DF80028EED028469F
:102B00003A46694604F5807401F0E8FD0546E1E7C0
:102B1000014B1878704700BFC815002410B5044653
:102B2000002004F099F914222146002004F022F834
:102B300020B12068024BC31A5842584110BD00BF53
:102B40002047415410B50446002004F085F94C227A
:102B500021464FF4A05004F00DF820B12068024B3C
:102B6000C31A5842584110BD2052455673B5264EDF
:102B70002648FFF7E7FF04463046254DFFF7CEFF16
:102B800008B3B06800283BD07368224A904298BFCF
:102B9000B3F5805F14BF0123002374B31B4A926C0A
:102BA000C2B1904216D001461B4803F0F3FD174B0B
:102BB0009B6C53B1FFF752FF38B102201AE092B27A
:102BC000164803F0E7FD002CF1D1FFF747FF88B16D
:102BD00001200FE0002BEAD100230DF10601ADF832
:102BE0000630FFF76DFFF268BDF8061093B28B4216
:102BF000E5D10320287002B070BD002BECD0E4E7D3
:102C0000002CE2D02346C9E7B4150024681500243F
:102C1000C815002400F07F00C92A0108EC2A010829
:102C200008B5FFF7A3FF044B04491870044802F0ED
:102C300099F9012008BD00BFC8150024992D00088E
:102C40000A2B0108F0B5274E87B000243378ADF881
:102C50000240022B2AD1244B9D6C244B6A1E9A42BF
:102C600024D22946224803F095FD204604F0F4F8CA
:102C70000DF1020128464FF48057FFF721FF1D4B4D
:102C800001A91022204605940395CDE90137BDF82E
:102C90000230049301F022FD394605904FF01040B8
:102CA00002F0DEFC28B9144803F074FD002007B0E0
:102CB000F0BD142201A94FF0104002F0EFFC08B95A
:102CC0000E48F1E7FFF752FF0D4B0E493070032815
:102CD00018BF19460C4803F05DFD3078C31E5842FA
:102CE0005841E4E7C81500246815002400F07F006F
:102CF000122B010820474154312B01084B2B0108AE
:102D0000E32901080F2B0108652B01081D4B37B57E
:102D100000241B780194BBB1204604F09DF80422E6
:102D200041F204000DEB020103F024FF38B30199D6
:102D3000154A01F1E043A3F58053934201D2CB073A
:102D400005D4124803F026FD102003B030BD104812
:102D500003F020FD01990F4803F01CFD2046019D62
:102D600004F0C8FB019801F09DFBFEF763FD012014
:102D700004F072F80028E7D0A8472046E5E71520C0
:102D8000E3E700BFC815002400F07F00712B0108A5
:102D90008E2B0108A32B0108444B70B504469CB050
:102DA0000FCB8DE80F002388012B22D0002623882B
:102DB000012B06D1636900203D499847054600284C
:102DC0005DD135462388012B64D1636900203949E0
:102DD000984700285ED0384801F032FE6420FEF7A4
:102DE00070FDFFF793FF35481CB0BDE8704001F05F
:102DF00027BE636900203249984706460028D5D08F
:102E000080224FF000612F4801F01AFE08224FF097
:102E100010412D4801F014FE04224FF010412B48C0
:102E200001F00EFE2A492B4801F00AFEFFF79EFE34
:102E30001CAB03EB800050F8701C274801F000FE2B
:102E400004A8FFF76BFE40B10699244801F0F8FD95
:102E5000BDF81C10224801F0F3FD09A8FFF772FE2F
:102E60000028A4D012A91F4801F0EAFD0AA91E48B3
:102E700001F0E6FD1B991D4801F0E2FD97E7FFF721
:102E8000E1FE1B4B1B49002808BF19461A4801F0F8
:102E9000D7FD97E73DB9194801F0D2FD184801F078
:102EA000CFFD1848A0E71CB070BD00BF5029010835
:102EB0009A2C0108AC2C0108B12C0108123601082B
:102EC000B52B0108BA2B0108D72B0108FE2B0108EE
:102ED000001000901B2C0108302C0108412C010827
:102EE000522C0108672C0108782C0108892C010854
:102EF000E32901080F2B01089E2C0108BA2C0108B8
:102F0000C52C0108CF2C010810B5114CD4F82C1495
:102F1000201D02F031F9201D02F038F9D4F85C18B8
:102F200004F2344002F028F904F2344002F02EF9A1
:102F300000F096F8074803F02DFC2168064803F0DE
:102F400029FCD4F83014044803F024FC012010BDFF
:102F500068000024DA2C01086039010870B51A4CA9
:102F600000F0F4F823786BBB0123184E184D237042
:102F7000D6F82C34AB4206D102F0A2F818B105F015
:102F80009BFB012806D0134802F00FF910B111483D
:102F900000F010FAD6F85C38AB4207D00E4802F0C9
:102FA00004F958B10C4800F005FA07E002F088F87F
:102FB0000028F3D005F080FB0128EFD10023012089
:102FC000237070BD0020FCE7C915002468000024B0
:102FD000600900246C0000249C0400240120704738
:102FE00001207047F8B50B4F0C463D68C5F57E666D
:102FF0008E423BBF084B01220E461A703EB101467D
:1030000006483246284435440DF020FE3D602046F7
:10301000F8BD00BFF8150024F0150024FC150024AD
:10302000002307B501220DF1070105488DF807308F
:1030300001F013FB9DF8070003B05DF804FB00BF2F
:10304000FC250024024808B501F037FB012008BD2B
:10305000FC250024014801F026BB00BFFC2500240C
:1030600008B54FF400720E490E4801F0C8FA0E4B35
:10307000002202201A600D4A0D4B114613600D4BC1
:1030800053600D4B93600D4BD3600D4B13610D4B93
:10309000536104F053FF01200B4B187008BD00BFB3
:1030A00010260024FC250024F8150024CC1500244B
:1030B000DD2F0008E12F00085530000845300008DA
:1030C00021300008E52F0008E9150024174B1B7874
:1030D00073B506460C4615460BB9FFF7C1FF144BF6
:1030E000144A1E6000231360134A1360134A1370BE
:1030F0000122134B1A70FEF7F2FB124B2A462146AF
:103100001860114801F084FA25B12C4414F8013CF0
:103110000D2B08D00D2301220DF107010A488DF86F
:10312000073001F075FA012002B070BDE9150024E6
:10313000EC150024F8150024F4150024F0150024E3
:10314000E8150024E4150024FC2500240F4B1B780F
:1031500013B5C3B10E4C2378ABB1FEF7C0FB0D4BDA
:103160001B68C01AC7280ED90B4801F09CFA40B959
:103170000D2301220DF1070107488DF8073001F0FA
:1031800047FA0023237002B010BD00BFE9150024E8
:10319000E8150024E4150024FC25002410B5074B95
:1031A000074C1B6822689B1A994228BF1946054B99
:1031B00013440A4403600846226010BDF815002439
:1031C000F4150024FC150024044B1868044B1B68FC
:1031D00098422CBF00200120704700BFF415002446
:1031E000F81500240E490B7870B5C3B10D48056879
:1031F00005F11B04B4F5805F0FD80B4A0B4B2B4431
:1032000002F1180552F8046BAA4243F8046BF9D195
:10321000158892781D809A70046000230B7070BD31
:10322000F0150024F8150024FE2C0108FC150024DC
:103230000023044A1360044A1360044A1370044ACA
:1032400013707047F8150024F4150024F0150024BD
:10325000E81500240120704710B5064C23783BB9CF
:103260004FF400620449054801F0C9F901232370B5
:1032700010BD00BF10280024282800241428002492
:1032800008B5FFF7E9FF012008BD0000002307B5DE
:103290008DF80730FFF7E0FF01220DF10701044828
:1032A00001F0DBF99DF8070003B05DF804FB00BFF7
:1032B0001428002408B5FFF7CFFF024801F0FDF9FC
:1032C000012008BD1428002408B5FFF7C5FF0248F7
:1032D000BDE8084001F0E7B9142800242DE9F041C9
:1032E00090B00F46164605F071F9044688BB20469B
:1032F00010B0BDE8F081351B3F2200210DF1010027
:103300003F2D28BF3F25FDF7C1FD39190DF1010003
:103310002A468DF800500DF099FCFEF7E0FA804641
:1033200000200BF0A5FD58B1002140236A46084655
:103330000BF0BAFD0028DAD02C44A642DBD8D6E741
:1033400005F04AF9FEF7CBFAA0EB08006328E7D9AD
:10335000CDE70024F1E7000038B50C460546FFF73D
:103360007BFF74B12A78691C06483F2A28BF3F2298
:10337000A24224BF04F1FF34E2B2BDE8384001F0BC
:1033800047B938BD1428002401207047084611466B
:1033900001F0BCBE01F0A8BE08B501F09BFE08B963
:1033A000012008BD01F0A0FEF7E701F093BE012067
:1033B000704700002DE9F04F468ADBB00446D0F894
:1033C0002474C58A112E00F2E381DFE816F01200A2
:1033D000400071009600A700D400F3005B01670174
:1033E0006701E101E101E101E101E101E101950193
:1033F000BF01642200211BA8AC4DFDF747FDAC4B7B
:103400004FF000614FF400001A934FF40033CDE900
:103410001C134FF01043A7491E9303F580531F93CD
:103420004FF48053CDE92003A34B24A8CDE92253C8
:103430000DF004FCA1492CA80DF000FC682300222B
:1034400000936B441146204601F080FF50E107AF26
:1034500002AD4C2200213846FDF718FDFFF786FB30
:1034600038702846FFF75AFB18B1049B7B60059B18
:10347000BB601AA8FFF766FBA0B123AE0AAD0FCE62
:103480000FC596E80F001BAE85E80F000FCE12ADFA
:103490000FC596E80F0085E80F00002387F82B3052
:1034A00087F84B304C230022012100933B46CAE7AA
:1034B000032D1CD93E687D4B721E9A4219D24FF4DF
:1034C00080514FF0104002F0CBF8A0B17C4B0025AA
:1034D00031467C481E607C4B1D6003F05BF928463A
:1034E00000F0C6FF2A46002302210093ABE70A2220
:1034F000F9E70D22F7E70C22F5E7714B196800296F
:103500000ADD724802F0ACF800280CBF0C22002241
:1035100000230321009396E70A22F9E7032D24D91B
:10352000674E3368002B20DD2A1F386815189D422E
:103530001DD800F11040391D00F5805002F0AEF8A2
:10354000B8B1614B1A6895420AD964201D6032688F
:103550000023A5FB0001FDF753F9C0B200F088FF7E
:1035600000220023042100936DE70A22F9E70D22CF
:10357000F7E70E22F5E7072D14D97D68B5F5807FB2
:1035800014D838684319B3F5000F0FD82A461AA982
:1035900000F1104001F0C8FF50B11AAB00220095B5
:1035A000052150E70A2200230093F9E70D22FAE7EC
:1035B0001522F8E7DFF808A1DAF80030002B5BDD10
:1035C000DFF80491D9F80030002B55D00027B84619
:1035D0003D46D9F80060BE421CD90DB1152540E02A
:1035E000F61B07F110401AA9B6F5807F00F5805050
:1035F00028BF4FF48076324601F096FF40B1404636
:1036000032461AA901F06AF8804607F58077E0E7AC
:103610001525FAE7002DE1D107AF2D4B4FF4805B64
:103620001022394628460B95CDE9073BCDE90968BC
:1036300001F054F859460B904FF0104002F010F88A
:10364000E0B1142239464FF0104002F027F8B8B12B
:10365000284603F0AEFF4246D9F800101D4803F09B
:1036600099F84FF0FF33CAF8003000F00FFF002345
:103670002A4606210093E6E60A25F2E70C25F0E744
:103680000E25EEE7FFF772FAB0FA80F201211AABCD
:1036900052091870009107211201D4E6FFF766FA6B
:1036A0000346C8B9102200903146CCE600DE7E0009
:1036B000AAAA55551A2D01080400FFFF2A2D01085A
:1036C000F8090024342D01082C3200240010009049
:1036D000204741544C2D01080023314620461A460C
:1036E000009301F033FE6420FEF7EBF8FFF70EFBCA
:1036F00001205BB0BDE8F08F01F02EF92A46394673
:1037000080462046FFF7E2FC002000F087F8002109
:10371000022001F0F9F8FEF7E2F80546FEF7DFF8BF
:10372000431BB3F5967F06D201F08EFA022004F017
:10373000BDFC0028F2D101F087FA0021404601F0DB
:10374000E3F8012000F06AF8FFF74CFD0DF168087E
:103750004FF40071104F4046FFF720FD0546FFF77C
:1037600033FD03462A46013538461A99ADB200F8B2
:10377000013B0DF06BFA3B46002231462046009596
:1037800001F0E4FD3B78002BB2D1FFF751FDAFE72C
:1037900000230A22009387E72830002408B5054B50
:1037A0004FF4E131187801F0AFF801F0BFF80120D3
:1037B00008BD00BF30320024164B1B7810B53BB358
:1037C00001F042FA144C01F07BFCD8B104F074FF14
:1037D000012817D12070002004F068FC08B10023F4
:1037E000237001F0B9F82378984211D04FF4E131F9
:1037F000184601F089F820784FF4E131BDE8104017
:1038000002F090BF2378012B04BF00232370E2E76E
:1038100010BD00BFFC09002430320024014B187099
:10382000704700BFFC090024F8B50388012B18D1AC
:10383000436900200D49984798B10D4D00240D486B
:103840003027296801F0FCF86E682B689C4200DB89
:10385000F8BD07FB046221460748013401F0F0F887
:10386000F3E70648BDE8F84001F0EAB8B52B0108D7
:10387000343200246E2D01087E2D01088A2D0108A6
:103880002DE9F843224A3021224B0125224C9B1A74
:1038900022482F46B3FBF1F3C4E9003202F07AFF6D
:1038A00021681F4802F076FF1E4802F073FF0026D1
:1038B000DFF8889017E04FF03008616808FB06F8E1
:1038C000414491F82020BA421AD14B6A53B198472B
:1038D0006168154A05404144002818BF4A4613480C
:1038E00002F058FF013623689E42E4DB0137042FC3
:1038F000DDD10F490F4801F035FB2846BDE8F883BC
:10390000531E022BEED90C48002502F043FFE9E7D5
:103910000812002498120024343200249C2D01083F
:10392000AF2D0108C22D0108972D0108D62D0108E1
:1039300029380008002E0108E42D01080F2B01088A
:1039400070B50024074D30262B68A34201DC01200E
:1039500070BD6B6806FB04339B6A0BB1002098476F
:103960000134F1E7343200242DE9F043294FC7B088
:103970003B68002B4AD10024204647B0BDE8F083C5
:10398000641B05F1104006A9B4F5807F00F5805056
:1039900028BF4FF48074224601F0C6FD0028EAD00B
:1039A0003046224606A905F5807500F097FE0646CA
:1039B0003C68AC42E4D84FF0000801AD164B4FF420
:1039C0008059294610224046CDF81480CDE90139AE
:1039D000CDE9034600F082FE494605904FF01040C5
:1039E00001F03EFE0028C6D0142229464FF01040B8
:1039F00001F054FE04460028BDD0404603F0D9FD36
:103A000032463968054802F0C5FEB5E700252E4666
:103A1000CEE700BF4033002420474154072E010861
:103A200010B5124B01240021FE221C70104B1148CE
:103A30001970114B1970114B1970114B1960114B02
:103A40001970FDF723FA104802F0A4FE0F49104840
:103A500002F0A0FE41F6B7710E4802F09BFE0E493F
:103A60000E4801F07FFA204610BD00BF4B33002402
:103A70004A330024413200244933002448330024CF
:103A8000403300243F3300242E2E01080400FFFFA2
:103A90003E2E0108562E0108B53A00086D2E010889
:103AA000024B187808B9024B187870474833002445
:103AB0004A33002408B50388012B25D1436900202F
:103AC0001449984700B31449144800F0B9FF41F66F
:103AD000B771134800F0B4FF1021124800F0B0FF96
:103AE00000F088FA104B1149002808BF1946104809
:103AF00000F0A6FFFFF7D4FF0E4B01460E481A78E0
:103B0000BDE8084000F09CBF0C48BDE8084000F04C
:103B100097BF00BFB52B01080400FFFF7D2E0108F1
:103B2000912E0108A42E0108712E0108752E01089E
:103B3000BF2E01083F330024CF2E0108E72E0108D5
:103B4000014B1878704700BF3F330024014B01221E
:103B50001A707047493300242DE9F04F664B154623
:103B60000A6885B00C469A421ED103F114434A6894
:103B700003F52C1303F602339A4215D1D1F8FC2138
:103B80005E4B9A4210D18B6823F4FF5323F01E033F
:103B90009B049B0CB3F5005F06D1C969584A91425A
:103BA00005D0584802F0F6FD4FF0FF3099E0DFF8FD
:103BB0007091554E99F8003043B133688B4205D16E
:103BC000A269E2B12B68D3B19A4218D040F6F472E0
:103BD00000212846FDF75AF9FE2200214B48FDF747
:103BE00055F900234A4AA16913604A4A4A481370AA
:103BF000012389F80030E369336002F0CBFDA3694B
:103C000047F64072591E914215D82B60636947F6FA
:103C10004172934212D803F00702012105EBD3034E
:103C200091405A7AC8B211422CD102435A726B6841
:103C300001336B6002E02B68002BE7D1374BD4E9EE
:103C400003A20AEB0208984544D808F1FF334FEA73
:103C50001A37DFF8B8B01B0B0193019BBB4216D299
:103C60000AF1104004F1200100F5805001F016FD2A
:103C700080B3274B1A68904501D9C3F80080002013
:103C800002F08CFC2A687ABB4FF4007029E0012313
:103C900007F0070640F2ED7103FA06F6FB088F42C3
:103CA000F6B217D81BF8031003930E4210D1380355
:103CB0004FF48051029200F11040084401F0D0FC12
:103CC00040B1039B029A1BF803100E430BF80360EC
:103CD0000137C2E701236FF001002B72002389F83E
:103CE000003005B0BDE8F08F6B6864214B43B3FB37
:103CF000F2F3084A1370C7E75546320A306FB10A2B
:103D00000400FFFFF12E0108443300244132002457
:103D1000403300243F3300240D2F010800DE7E00D5
:103D200048330024037A2DE9F041044673B90C4F5F
:103D30003E789EB9FFF718FEDFF82C80054640B9A3
:103D4000084802F027FD88F8005025600020BDE8F3
:103D5000F081012388F8006026603B700120F6E7BF
:103D60004A330024292F0108483300241B4B1B78B9
:103D700010B593B11A4C2378012B0FD0022B17D01A
:103D80005BB9184B1B7813B9174B1B782BB1FDF798
:103D9000A6FD164B18600123237010BDFDF79FFD93
:103DA000124B1B68C01AB0F57A7FF6D30223F3E7F3
:103DB000FEF7DCFE40B10E4802F0ECFC4FF49670CA
:103DC000FDF77FFDFEF7A2FF0A4802F0E3FC0023A7
:103DD000044A1370044A1370DEE700BF4B3300241B
:103DE000403200244A330024493300243C3200246A
:103DF0003F2F0108512F010870B5444B9EB0444A33
:103E00004FF40071434802AC0BF0CEFF424B434AE3
:103E100040F2ED1142480BF0C7FF424B424A40F2DC
:103E2000D71142480BF0C0FF414B424A4FF4E171B9
:103E300041480BF0B9FF41F6B773404A4FF4D671D1
:103E40003F480BF0B1FF3F4B324D0FCB84E80F00E2
:103E5000FEF78CFE1EAB3C4A40F2971103EB80004C
:103E600050F8703C39480BF09FFF041E40F2FF13DE
:103E70000BA8CCBF693469249C4228BF1C46FEF7BE
:103E800061FEF8B114ABC4F500712819304A0093F3
:103E900020230BF089FF002840F2FF160CABC8BFAF
:103EA00024182B4A00932023B44228BF3446C4F57B
:103EB000007128190BF078FF0028C8BF2418B442FD
:103EC00028BF344606A8FEF729FE78B1099BC4F541
:103ED000007128191F4A0093089B9B0A0BF064FF8E
:103EE00040F2FF1304449C4228BF1C46C4F50071F5
:103EF0002819194A24340BF057FF184B40F2FF12CF
:103F0000944294BF1C601A601EB070BD1A2D010847
:103F1000672F0108444300246E2F0108792F010800
:103F2000574300242A2D0108882F01086D430024DF
:103F30000400FFFF972F010882430024AA2F0108E5
:103F40009843002460290108BE2F0108AD430024D6
:103F5000CD2F0108DE2F0108FC2F0108404300246B
:103F6000F0B589B00E461C4C1C4904AF04F1080E94
:103F700008683D4689880290ADF80C102068083426
:103F800054F8041CBC467445ACE803006746F5D100
:103F9000217920682C468CF804101149CCF80000D7
:103FA0004FF0203001910F49A6F80510F171D06053
:103FB0000298D9709DF80C103060317103CC1060FC
:103FC000206851609060BDF804109DF806201980AB
:103FD0009A7009B0F0BD00BF213001082E300108F1
:103FE000312E300020202000014B1870704700BF98
:103FF000FD090024014B1878704700BFFD0900241B
:10400000054B10B51C7824B923463A2202210BF047
:104010003BFA204610BD00BFFD0900244FF40043C9
:104020000B604FF40073138070470120704708B590
:1040300013B10AB9FFF78AFD012008BDF8B51E4685
:104040002F4B0F4614461B78069D33B93A220221A6
:104050000BF01AFA4FF0FF30F8BD2A460021304627
:10406000FCF714FF77B9B4F5007F09D2C4F50072EC
:104070002449AA4228BF2A46214430460CF0E6FDD6
:104080002846E9E727F08003012B09D1B4F5007F2A
:10409000F6D2C4F500721C49AA4228BF2A46EBE7B3
:1040A00040F201139F421BD1FFF7A6FE174B1849A0
:1040B000B4F5007F1B684FEA132281F83C3081F889
:1040C0003D204FEA13424FEA136381F83E2081F806
:1040D0003F30D5D2C4F50072AA4228BF2A46CBE7AA
:1040E00040F221139F42CBD1FFF786FE074B1A689F
:1040F000A242C5D9121B0749AA4228BF2A46BBE7DC
:10410000FD090024FE0D0024FE0B00244043002482
:10411000FE09002444430024F8B51F460F4B0D460A
:10412000069E1B78BBB93A2202210BF0ADF94FF085
:10413000FF300FE00230FAD0013504F50074B442CC
:1041400007EB040105D2064A2846FFF705FD0028C3
:10415000F0D12046F8BD0024F1E700BFFD0900249E
:104160004C3300240648037A13B1064802F012BB10
:10417000036823B14268934201D8FFF7D3BD70476B
:104180004C3300243430010808B50B78352B09D0A6
:10419000912B07D00023202205210BF075F94FF059
:1041A000FF3008BD0020FCE72DE9F041524C8AB0F9
:1041B00094E80F0002AD103485E80F0094E80F007A
:1041C0004E4D0AAC04E90F00FEF7A2FCD5F80080C2
:1041D0000646002001F008FC012001F0E7FFB8F1DD
:1041E000000F43D04FF47842454B02210420009346
:1041F000B400444B01F088FE0020434F01F0D6FF8D
:10420000B8F1000F36D02B684FF478421821042003
:1042100000933E4B01F078FE04F1280348F210426F
:1042200024210DEB0304042054F8103C0093354B7B
:1042300001F06AFE3978364A0420364B002918BF4F
:1042400013464FF6E072342100932E4B01F05CFED2
:104250004FF478430093A02203234D21002001F066
:10426000F6FD0AB0BDE8F04101F0CEBC4FF4FC62AF
:10427000294BBAE7294B4FF6FF721821042000930F
:1042800048F210451F4B01F03FFE254B0AAA24219E
:104290001B780420032B02EB830353F8203C14BF4C
:1042A0002A464FF478420093164B01F02DFE3B78DE
:1042B000F3B14FF6E0721B4B3021042000931A4BF0
:1042C00001F022FE04F12803002E4FF03C010DEB1B
:1042D00003044FF0040014BF4FF4FC624FF4784223
:1042E00054F8103C0093074B01F00EFE1F23B1E77A
:1042F0002A460E4BE0E700BF702901084C45002418
:1043000065300108D2350108504500249930010874
:10431000793001088A3001086F3001082A2D010820
:10432000FF0F0024CD3B01089F300108BD2F01087D
:1043300010B5064B01241C70FFF736FF01F08CFC12
:10434000642001F031FB204610BD00BF534500241E
:104350003A4B1B7873B5002B6ED0394CFDF7BFFA82
:104360002368C01A632867D9FDF7B9FA206001F005
:1043700043FC002860D0FFF793FB00284BD1314B62
:104380001C78FFF78DFB002847D0FFF7D9FB002CE6
:1043900046D02D4B1A7882424ED0642818704FF0C8
:1043A00001052A4B28BF64201D706423C6B206EBAA
:1043B000C60004010020B4FBF3F401F015FB28460D
:1043C00001F0F4FE0421224B4FF6E072084601F0A2
:1043D0009BFD204B4FF6FF7204217020009601F0E8
:1043E00093FD03234FF6FF722C210620CDE9003206
:1043F0001023942201F0ACFC44B14FF4FC6322B2D0
:104400002E21082000930C2301F021FD02B0BDE80D
:10441000704001F0F9BB0124B3E70F4B1878B6E701
:104420000A4B1A7842B11C70FF22074B1A7002B077
:10443000BDE87040FFF7B8BE02B070BD5345002420
:104440004845002452450024FE0F00244445002422
:10445000AD300108B630010851450024024B1870F8
:10446000024B1970704700BFFF0F00245045002415
:10447000044B012264281A7028BF6420024B187074
:10448000704700BF5245002451450024014B0022D3
:104490001A70704752450024014B1860704700BFE6
:1044A0004C45002430B5294B9BB0054603AC0FCBDF
:1044B00084E80F00FEF72CFB0446002001F094FA7C
:1044C000012001F073FE224B4FF4FC620221042014
:1044D00001F01AFD002001F069FE07A8FEF732FB8B
:1044E00060B310AB4FF6FF721A2104200093194BF2
:1044F00001F00AFD08AB48F2104226210093042087
:10450000144B01F001FD1AAB01954FF4FC6234210C
:1045100003EB8404042054F85C3C00930E4B01F040
:10452000F3FC4FF4FC63A0224D21002000930323F1
:1045300001F08DFC01F090FB1BB030BD074B4FF636
:10454000E0721A21042001F0DFFCDCE79029010869
:10455000BC300108C4300108DA300108CA30010853
:10456000DFF838D0FDF7DEFAFDF76AFA0C480D499E
:104570000D4A002302E0D458C4500433C4188C42BE
:10458000F9D30A4A0A4C002301E013600432A24224
:10459000FBD3FCF783FCFDF7C6FA70470000082444
:1045A0000000002498120024C8730108A0120024FF
:1045B00040820024FEE71EF0040F0CBFEFF30880DA
:1045C000EFF30980FDF7BAB91EF0040F0CBFEFF34B
:1045D0000880EFF30980FDF7BBB91EF0040F0CBF94
:1045E000EFF30880EFF30980FDF7BCB91EF0040F6C
:1045F0000CBFEFF30880EFF30980FDF7BDB9034668
:104600000020C3E9000001209A60C3E9030170475C
:10461000F0B50026964201D10120F0BD05688468FE
:104620006B1CB3FBF4F704FB173344689C4212D0B5
:10463000046944B139B1C76807FB05440025C76860
:10464000AF4203D8394401360360E3E74F5D0135DB
:1046500004F8017BF3E70020DFE770B50025954201
:1046600001D1012070BD03694BB141B1C4684668F6
:1046700006FB04330024C668A6420DD83144D0E9B5
:104680000043A3420DD0013384680135B3FBF4F637
:1046900004FB16334360E2E713F8016B0E55013457
:1046A000E9E70020DEE782680368416813445B1A8B
:1046B000B3FBF2F002FB103070470023C0E9003377
:1046C000704700000288044B81EA122133F8113050
:1046D00083EA022303807047203F010837B50C4668
:1046E0008D18ADF80600AC4203D1BDF8060003B04A
:1046F00030BD14F8011B0DF10600FFF7E3FFF2E7F0
:104700004FF6FF7301F11C02012010B5CB8080240D
:104710000B461C720233D8719342FAD14FF6FF73E5
:104720008B8410BD02780631064B203AD2B203EBDF
:10473000021303F1100253F8040B934241F8040BE7
:10474000F9D170472041010870B50C460646202279
:104750000021A01DFCF79AFB0023A38033780BB146
:104760000A2B04D104200123A080638070BD1A06A7
:1047700016D572781B043046214643EA0223B278EC
:1047800013430C4A1A440C4B9A424FF00103A38086
:1047900094BF032302236380FFF7B2FF0120E5E704
:1047A0000225012330462146A5806380FFF7BAFF2A
:1047B0002846DBE7804F15FF30EF0200411E002244
:1047C00010B511F8013F5BB1A3F161040132192C5E
:1047D0009CBF203BDBB2102A0B70F2D10023C373C5
:1047E00010BD0000054BB3F87826824286BFD3F88F
:1047F0007C3653F820000020704700BF5445002449
:10480000094A08B503460846B2F87816994209D90C
:10481000D2F87C2652F82310FCF70CF8B0FA80F09E
:10482000400908BD0020FCE754450024074BB3F8BD
:104830007826824206D9D3F87C36002153F820002E
:104840000CF0DAB89FED020A704700BF544500240F
:1048500000000000074BB3F87826824207D9D3F84E
:104860007C36002253F8200011460CF081B900205C
:10487000704700BF5445002438B51F4C054694F8D6
:104880009731A3B394F8F1231AB11C49207803F0AF
:10489000B9FC94F8F2231AB11949207803F0B2FC5C
:1048A000012D94F8973123D194F894211AB194F8FA
:1048B000962184F8952194F99511194401391148EC
:1048C00091FBF3F203FB12114BB2C9B284F895319C
:1048D000432303FB01411A4601F5CC710CF0B6F9F4
:1048E00094F8F23384F8F133002384F8943138BD1E
:1048F00094F995110131E2E7544500242F31010864
:10490000353101080449002410B5074C237A207082
:1049100013B162688A4205D021B1616003F01CFBCB
:1049200003462072184610BD5445002410B5074CAC
:10493000237A4BB10649207803F064FC20780549BE
:10494000BDE8104003F05EBC10BD00BF544500241C
:104950003B3101083E310108014B1878704700BF18
:1049600054450024224B5B7A70B50446002B3ED0A0
:1049700090F8F12304F5CC761E490025C07A03F0A7
:1049800041FC94F8F2231C49E07A03F03BFC94F8D4
:10499000F0231A49E07A03F035FC04F56C721849EB
:1049A000E07A03F02FFC94F995211649E07A03F0A0
:1049B00029FC94F896211449E07A03F023FC94F83A
:1049C00097211249E07A03F01DFC94F89731E07AC0
:1049D0009D4204DB0E49BDE8704003F013BC334632
:1049E0002A460C490135433603F00CFCEDE770BD57
:1049F0005445002444310108523101086031010856
:104A00006E3101087C3101088A31010898310108B2
:104A1000BC2F0108A6310108014B187803F046BBF2
:104A200054450024014B187803F088BB54450024FA
:104A3000024B0A460146187803F0B2BB54450024E5
:104A40000FB407B504AB4FF48071084853F8042B3A
:104A500001930BF00DFA0549024611F8110C03F011
:104A60009FFB03B05DF804EB04B07047654500247C
:104A700070B50E4C00250E48A4F57E76FFF7E0FFDA
:104A80000C48FFF7DDFFB6F8F433AB4204DC0A480C
:104A9000BDE87040FFF7D4BF20460135FFF7D0FFD7
:104AA00003481434FFF7CCFFEDE700BF4C49002466
:104AB000BB2F0108B5310108D531010803882DE964
:104AC000F3472BB92B4802B0BDE8F047FFF7B8BF5A
:104AD000012B446815D00022606811460CF048F89C
:104AE000064600222068002511460CF041F80446D5
:104AF00021482746FFF7A4FFB54204DB02B0BDE81A
:104B0000F0871026EDE715F0030803D139461B485E
:104B1000FFF796FF39681A48FFF792FFB8F1030FC5
:104B200021D104F1100A1748FFF78AFF23680DF11D
:104B300004094FF00008019319F8011BA1F12003AB
:104B40005E2B13D81048FFF77BFF08F10108B8F17E
:104B5000040FF1D104345445E8D10C48FFF770FF3D
:104B60000120FCF7AEFE04370135C5E70848FFF722
:104B700067FFEAE7F53101081D3201080932010833
:104B8000DF30010813320108173201081C32010816
:104B90001A3201082DE9F341264E002401AA2649C4
:104BA00006F56C70A6F81241C6F8144106F58A782D
:104BB0000CF03BF8234605465F1C9BB26DBBA6F884
:104BC00012313BB31D48FFF73BFFD6F81401FFF746
:104BD000F5FD1B4F0123B6F8F483D6F81441B372E8
:104BE000454515DA394620461437FBF723FEF0B960
:104BF000B6F812311348013BC6F87C0600F5AC60EC
:104C0000A6F87836142303FB0564D4F808349847D3
:104C10000023B37202B0BDE8F08148F8235001AA26
:104C2000054900200CF001F83B460546C4E7013574
:104C3000D6E700BF5445002422320108BB2F0108EB
:104C40004C4900246C460024F0B5B64C85B0277A58
:104C5000002F00F0EA80207803F028FA002800F006
:104C6000E480207803F06AFA227C8DF80700002A9D
:104C700040F09F801B2800F0D3804ED8082800F019
:104C8000A5800D2863D094F8F25394F8F0336A1C91
:104C90009A4280F2C78094F8F163B5421AD101229A
:104CA0000DF10701207803F07BFA94F8F25394F8A1
:104CB000F16301359DF80720A3190136EDB283F8A1
:104CC000B023F6B26319002284F8F25384F8F1633A
:104CD00083F8B023AE426CD2AA1B05F56C7105F2C5
:104CE000B1300135D2B2EDB2891A801A2144204484
:104CF0000BF048FFA3199DF80720013684F8F25302
:104D0000254483F8B02300238749207884F8F16391
:104D100085F8B03303F076FA4BE07F28B3D194F8EE
:104D2000F12394F8F2339A427CD2991A02F56C720C
:104D30000120C9B22244884243DB013B00227B4967
:104D4000DBB284F8F233234483F8B0232EE094F8E6
:104D5000F233FBB194F89651432304F56C7103FBD5
:104D600005401A4600F5CC700BF070FF94F89731AF
:104D700084F895510135072B05F0070598BF0133DD
:104D800084F8965198BF84F89731012384F89431C0
:104D9000FFF700FF00236649207884F8F23384F897
:104DA000F13384F8B03303F02DFA6249207803F030
:104DB00029FA237C013B032B34D8DFE803F0313997
:104DC0003BB15578013002F8015BB4E794F8F25337
:104DD00094F8F1632DB92EB3731E574984F8F1335B
:104DE000E4E7FEB1B54207D1731EDBB284F8F233BB
:104DF000234483F8B023EFE7EED9AA1B013D06F563
:104E00006C7106F2AF30EDB2D2B2214420440BF007
:104E1000B9FE002384F8F253254485F8B033DBE76C
:104E2000022323743F48FFF79DFD384605B0F0BDCF
:104E30000323F6E79DF807200023442A237410D1AA
:104E400094F8F13383B3013B8DF80A2002A90322C1
:104E500084F8F13345F61B332078ADF8083003F0C1
:104E60009FF99DF80720432A13D194F8F13394F861
:104E7000F213994223D901338DF80A2002A90322A3
:104E800084F8F13345F61B332078ADF8083003F091
:104E900087F99DF80730412B06D10120FFF7ECFC84
:104EA0002649207803F0AEF99DF80730422B06D151
:104EB0000020FFF7E1FC2149207803F0A3F99DF8D9
:104EC0000730312B0AD194F8F1231D49207803F0E3
:104ED00099F9002384F8F133042323749DF80730F3
:104EE000342B9FD194F8F13394F8F223934205D2F6
:104EF000D21A1449207892B203F084F994F8F1237D
:104F000094F8F2339A4205D9D21A0D49207892B218
:104F100003F078F994F8F23384F8F133042380E74E
:104F200000237EE754450024313201082C32010869
:104F30003B3101083E3101082932010804490024AF
:104F40002F3101083C32010808B5FCF7E1FA044BA7
:104F5000187803F0ABF8B0FA80F0400908BD00BF44
:104F60005445002470B50E4D0E46B5F8F4431F2C81
:104F700014D8142301465C4304F57E732C442B445F
:104F800018460BF05BFEC4F80864FFF717FCB5F891
:104F9000F43301200133A5F8F43370BD0020FCE7A1
:104FA0005445002408B512490022124B1248C3F898
:104FB000801612491A81C3F8841611499A72C3F8EF
:104FC000881610491A74C3F88C163F21C3F894212F
:104FD000A3F8F0130C4983F8F22383F8B023FFF70A
:104FE000C1FF0A490A48FFF7BDFF012008BD00BF05
:104FF0005548000854450024423201082D48000855
:10500000E547000801480008714A0008BD4A000849
:105010004732010801460148FFF712BD4A32010834
:1050200001460148FFF70CBD5032010810B50A4C8B
:105030002378012B0ED00022084B11460132197043
:10504000D960082AC3E9011103F11403F6D1012044
:10505000207010BD0020FCE7E44B0024E84B002446
:10506000104A136870B501330F4C00250F4E1360C2
:105070003388AAB29BB2934213D92378012B0CD167
:105080006368013B636043B96278012A08BF2370FB
:10509000A3686360D4E90330984701351434082DC0
:1050A000E6D170BD8C4C0024E84B0024884C0024D1
:1050B000012070470120014B18707047904C00246C
:1050C00008B503F083FA20B10020BDE8084009F0DC
:1050D000B1BC08BD08B503F079FA20B10020BDE8E5
:1050E000084009F0C7BC08BD07B503F06FFA40B12E
:1050F00001220DF10701002009F0C6FC20B19DF846
:10510000070003B05DF804FBFF20FAE7F8B5074697
:105110000D46FFF7D5FF0446C0B1FCF7E0FB0024C5
:105120000646AC420FD203F057FA2A1B3919002069
:1051300009F0B6FC0444FFF7C3FF20B1FCF7CFFB36
:10514000801B6328EDD9002009F0B6FC2046F8BD8D
:1051500007B503F03BFA20B10020694609F07EFC58
:10516000009803B05DF804FB08B5FFF7F1FFA0F568
:10517000E1335842584108BD00F12303C160C0F833
:1051800024340123038000238370704710B5044644
:10519000C06848B1D0F88030984700236070A37091
:1051A000FCF79DFB6060012010BD2DE9F0414678C1
:1051B00004461EB900263046BDE8F081C7684FF0AE
:1051C0000008D7F88830384698470028F2D0D7F83A
:1051D0009030384698470546FCF781FB6368C01A53
:1051E000632888BF84F80280FCF779FBA3786060AD
:1051F0000A2BE6D8DFE803F0060C171D232C323B00
:1052000041566500022DDCD101232576A370D8E735
:10521000FD2D05D10223A370237E033B2376D0E727
:105220000023A370CDE7237E25742B44237603232C
:10523000F7E7237E65822B4423760423F1E7638A14
:1052400043EA05236382237E2B4423760523E8E784
:10525000237EA5822B4423760623E2E7A38A43EA32
:105260000523A382237E2B4423760723D9E7237EBD
:10527000E5822B4423760823D3E7E38A227E43EAA0
:1052800005232A449BB22276E382C3B1B3F5806F33
:1052900003D80023A3600923C3E72023A3820023AC
:1052A000A37088E7A368D4F82424D554237EE28A27
:1052B0002B442376A36801339342A36081D10A2350
:1052C000AFE7237E65765B42DBB2AB422376E6D066
:1052D0002123E3E7F8B504464078079D80B3627761
:1052E000120AE3771B0AA2774FF6025684F82030A1
:1052F00022462B0A2177E068668384F8215002F861
:10530000223F069B59198B421BD105F10A0604F175
:105310001901093500230A4611F8017F183A3B4468
:10532000121BDBB29542F6D85B422544324604F1AB
:105330001A01AB76D0F894309847331A5842584146
:10534000F8BD13F8016B02F8016FDCE713B5049C9C
:10535000CDE9003413460A460121FFF7BBFF02B036
:1053600010BD000010B5204C204B22689A4239D164
:105370000023012223601E4B1A70237A03B1636A53
:105380001C4A1D48136001F005FA61681B4801F0D2
:1053900001FA1B491B4801F0FDF9237AFBB1E168D2
:1053A000194801F0F7F92169184801F0F3F961692A
:1053B000174801F0EFF9A169164801F0EBF9E1692E
:1053C000154801F0E7F9216A144801F0E3F9616A30
:1053D000134801F0DFF9A16A124801F0DBF9124825
:1053E00001F0D8F9012010BD10000020AAAA5555DF
:1053F000984C0024944C0024563201086532010870
:105400003C000020723201087F320108903201080E
:10541000A1320108B2320108C3320108D4320108B6
:10542000E5320108F6320108BC2F010810B5214B06
:105430000024214AC3E90024002939D001221A722C
:105440000A68DA604A681A618A685A61CA689A61A9
:105450000A69DA614A691A628A695A62C969996293
:1054600002F17841B1F5003F05D302F1E042B2F517
:10547000000F00D31C60431E104C1E30002113F897
:10548000012F0AB109B100220121834204F8012F42
:10549000F5D102F07FF8BFF34F8F0949094BCA6875
:1054A00002F4E0621343CB60BFF34F8F00BFFDE710
:1054B0001972E0E710000020AAAA55553B00002011
:1054C00000ED00E00400FA05014B1878704700BFBA
:1054D000984C002410B5084B012408481C7001F0BA
:1054E00059F94FF00061064801F054F905490648A2
:1054F000FFF738FD204610BD994C00240733010802
:105500001933010869550008403301080144024677
:10551000044BB1F1006F8CBF012000209A4288BF7C
:1055200000207047FFFF010838B5034614460846BF
:10553000B3F1006F14D31C440A4DAC4204D8194691
:105540000BF084FB012038BDB3F1104F08D314F1E8
:10555000DF4F05D803F1E040BDE8384001F00ABB59
:105560000020F0E7000002080388012BF7B504468D
:1055700025D000252388032B4DD1636900202B49BA
:105580009847002847D0A36801209847A36806469B
:105590000220984700240546AC420BD0A7190122EF
:1055A0000DF107013846FFF7BFFF38BB39462048E9
:1055B000FFF746FA1F48FFF743FA03B0F0BD43690F
:1055C00000201D49984705460028D2D080224FF080
:1055D00000611A48FFF734FA4FF400524FF01041BF
:1055E0001748FFF72DFA04224FF010411548FFF736
:1055F00027FA15491548FFF723FABBE7230703D11C
:1056000039461348FFF71CFA9DF80710013411487A
:10561000FFF716FAC0E7002DCFD10F48FFF710FAB9
:105620000E4803B0BDE8F040FFF70ABAAC330108FA
:10563000B1330108BC2F0108B52B0108463301081E
:105640005E33010883330108001000909B3301088A
:10565000C3330108CE330108D4330108E033010815
:1056600038B504460D46FFF751FF28B121460A48D8
:1056700001F090F8002038BDB4F1104FFAD363194F
:1056800013F1DF4FF6D801F0E7FB294604F1E040C3
:10569000BDE8384001F006BBFD33010870B50E4689
:1056A000114604461546FFF731FF28B121460B4845
:1056B00001F070F8002070BDB4F1104FFAD36319F7
:1056C00013F1DF4FF6D801F0C7FB2A46314604F14B
:1056D000E040BDE8704001F0A3BA00BF21340108EA
:1056E00030B587B004460D461422002101A8FBF70F
:1056F000CDFB032C1ED8A91E0123082907D8DFE8FB
:1057000001F005060614130606171600029314226C
:10571000094B01A954431A1918595268019204F00F
:105720003BF9012007B030BD02930393EFE70293EA
:105730000223FAE70020F5E72047010803280A467C
:105740000BD81423054958430B180858998812B1EF
:105750005A7A04F0ABBA9A7AFBE7704720470108FF
:10576000184BD3F8E02042F0040273B5C3F8E020F0
:105770000024D3F8E020144D02F004020092009AB5
:10578000D3F8E02042F01002C3F8E020D3F8E03074
:1057900003F010030193019BE6B2297A013414351A
:1057A0003046FFF79DFF15F8091C3046FFF7C6FF8E
:1057B000042CF1D105490648FFF7D4FB012002B0C3
:1057C00070BD00BF0044025820470108FD57000883
:1057D00045340108032810B50CD81422064B504359
:1057E0001C181858A18804F05BFA637A1B1A5842F7
:1057F000584110BD0020FCE7204701080388012B19
:105800002DE9F04104464CD14369002049499847AD
:10581000064688B1484F0025D7F81080E8B2FFF758
:10582000D9FF29460135034642464448FFF708F9A7
:10583000042D07F11407EFD12388012B06D16369EA
:1058400000203F4998470546002844D13546238823
:10585000022B06D1636900203A4998470646002882
:1058600041D12E462388032B51D16369002036494C
:10587000984700284BD0A36801209847A3680546A5
:1058800002209847C6B2EDB2311E284618BF01214A
:10589000FFF754FF324629462C48BDE8F041FFF798
:1058A000CFB80025D3E7244F0026D7F81080F0B2F8
:1058B000FFF790FF31460136034642462448FFF782
:1058C000BFF8042E07F11407EFD16420FBF7F9FFAE
:1058D0003046FFF79FFBFFF737FB0028E3D104209A
:1058E000FFF79EFBB3E7A36801209847C5B2FFF717
:1058F0002BFB0028B6D02846FFF76CFF294602464E
:105900001448FFF79DF86420FBF7DBFFEFE77EB953
:105910001148FFF795F81148FFF792F80321104856
:10592000FFF78EF803210F48BDE8F041FFF788B874
:10593000BDE8F081B52B0108204701084A34010871
:1059400059340108AC330108823401088834010855
:105950005E3401086F3401089C340108A734010843
:10596000B2340108C634010838B50B4DFBF7B7FF58
:105970000A4C2B68C01A2060FBF7B1FF286023682F
:1059800033B122684FF47A73B3FBF2F3044A136025
:10599000044B00221A7038BDA84C0024A44C0024EB
:1059A000A04C0024AC4C002464280246054B28BFC0
:1059B0006422011E4FF0020018BF01211A70FFF788
:1059C000BDBE00BF011000244F2909D89F2807D869
:1059D0004FF0A00C034B11FB0C011B6823F81120A6
:1059E000704700BF9C4C002400221FFA80FC0A4B29
:1059F00011466CF30F021B686CF30F016CF31F422E
:105A000003F5C8406CF31F411A60083343F8041CC7
:105A10009842F9D1704700BF9C4C00242DE9F04F0B
:105A2000002A85B0C2EBC274DDF8388040F3DE8016
:105A300003F002066F4D6400C2F1010C039603F0FF
:105A4000040680B22D68029603F0080603F00103F5
:105A500089B20196A026009300230CE0039F002F3B
:105A600042D1019F002F69D1009F002F40F092800A
:105A70009A4240F3BB80BCF1000F03F10103029F87
:105A8000A2BF023402F1FF32A4440CEB430C0CF130
:105A9000010C002FE2D01FFA83FE1FFA82F900EBFF
:105AA0000E0B01EB090A1FFA8BFB1FFA8AFABBF1F6
:105AB0009F0F06D8BAF14F0F9CBF1AFB06BA25F804
:105AC0001A8081448E441FFA89F91FFA8EFEB9F1BB
:105AD0009F0FC3D8BEF14F0F039F9CBF1EFB069EB6
:105AE00025F81E80002FBCD01FFA82F91FFA83FE12
:105AF000A1EB090A00EB0E0B1FFA8AFA1FFA8BFBC7
:105B0000BAF14F0F06D8BBF19F0F9CBF1AFB06BA24
:105B100025F81A808144A1EB0E0E1FFA89F91FFAAD
:105B20008EFEB9F19F0F9CD8BEF14F0F019F9CBF15
:105B30001EFB069E25F81E80002F95D01FFA83F9C4
:105B40001FFA82FE01EB090AA0EB0E0B1FFA8AFA7C
:105B50001FFA8BFBBAF14F0F06D8BBF19F0F9CBF0A
:105B60001AFB06BA25F81A808E44A0EB09091FFA21
:105B70008EFE1FFA89F9BEF14F0F3FF675AFB9F1EE
:105B80009F0F009F9CBF1EFB069E25F81E80002FC6
:105B90003FF46EAF1FFA83F91FFA82FEA1EB090AE8
:105BA000A0EB0E0B1FFA8AFA1FFA8BFBBAF14F0F0C
:105BB00006D8BBF19F0F9CBF1AFB06BA25F81A80C6
:105BC000A1EB0E0EA0EB09091FFA8EFE1FFA89F950
:105BD000BEF14F0F3FF64CAFB9F19F0F9CBF1EFBBC
:105BE000069E25F81E809A423FF745AF05B0BDE8F6
:105BF000F08F00BF9C4C0024024B187880F001000D
:105C0000704700BFAC4C00240F4B2DE9F0411D78CC
:105C1000A5B1DFF8408098F8004094B90B4E4F23AF
:105C20009F2221462046B768B847012322464FF4F9
:105C3000485188F800300648B36998472846BDE8BF
:105C4000F0810025FAE700BFAD4C0024B04C0024E1
:105C500000000030AC4C002438B50A4B1B787BB1F7
:105C6000FFF7D2FF084DFBF73AFE04462B783BB115
:105C70000120FBF726FEFBF732FE001B6328F5D957
:105C800038BD00BFAD4C0024AC4C00242DE9F74FCB
:105C90001546A3EB01091C46BDF83020A5EB000A10
:105CA00089EAE97320EAE07725EAE575BAF1000FA1
:105CB000A3EBE97324EAE47421EAE179B8BFCAF1FD
:105CC000000A0093534505DC21462C460D46494603
:105CD000B9460F46A14505DC29463D460F462146FB
:105CE0004C468946A9EB0406A7EB050BC6F3C03169
:105CF000B3B2BBF1000F01FA86F60193B8BFCBF146
:105D0000000BBD42B4BF01274FF0FF3776104C4562
:105D100002DD03B0BDE8F08F009BA4B21FFA85F846
:105D2000A6EB0B065345CBBF2146414640462046D5
:105D3000FFF74AFEB1B236B2002E05DA019BB84435
:105D400019440FFA88F50EB2013424B2DFE70000DF
:105D50002DE9F04F87B086B20C4605460593531ED9
:105D6000109F3344DDF844901FFA87FB049299B2E8
:105D70005E441FFA89FAA1EB0B0823B236B20391F5
:105D80000FFA88F819463046CDF800A04246FFF7D2
:105D90007DFF059B424630461FFA84F85E1ECDF813
:105DA00000A04644D84433B2B6B219460FFA88F878
:105DB000A6EB0B06FFF76AFF2AB2414636B2CDF8D2
:105DC00000A010463346FFF761FFBDF90C203346B3
:105DD0004146EE1907EB04081046CDF800A0FFF786
:105DE00055FF3A46414630460123CDF80090FFF773
:105DF00015FE049A414602231544CDF800903A4618
:105E0000ED1B013D2846FFF709FE059B28463A4653
:105E10001C44CDF800900423E41B013C2146FFF70D
:105E2000FDFD08233A4621463046CDF8409007B0A4
:105E3000BDE8F04FFFF7F2BD07B5013A00930A4401
:105E400013B20246FFF722FF03B05DF804FB2DE911
:105E5000F0410E461F46BDF8188004468518AC4236
:105E600001DBBDE8F0812046013443463A46314625
:105E700024B2FFF7E1FFF2E773B5194B6425194C23
:105E8000194E1D7000F02CFB2070304600F02EFBE8
:105E9000736916489847164B4FF4C84200211846BC
:105EA000FAF7F4FF0021134A502310600846A0229D
:105EB0000091FFF7CCFFFFF7CFFE2846FFF774FDF8
:105EC00024782CB90C4800F065FC204602B070BD67
:105ED0000A4800F05FFC0A490A48FFF743F8F4E774
:105EE00001100024AD4C0024B04C00246959000876
:105EF000000000309C4C0024FA3401080A350108E7
:105F0000816000081A35010808B42DE9F04FD6B0B9
:105F10000D46FF215FAB0492019016A853F8042BA5
:105F20000B9309F0A5FF544B019E1A78534B029036
:105F300053F822A0DAF80440002C59D10DF13009B1
:105F4000029B9C4230DA16AB49464FF0100A0027FC
:105F50001819FEF7F9FBB9F80230022B28BF02230B
:105F60000393DB009BB20693039B79194FF0000863
:105F700003FB079389B205335EE016AB002713F8E5
:105F800009B0ABF1200B9AF801309F4211D39AF877
:105F9000002009F1010916443244A02AC4BFED18BB
:105FA000019E029B9945E8DB56B0BDE8F04F01B079
:105FB000704703FB0B7379194FF0000834F8133066
:105FC00089B29AF80020904501D30137DBE703FA44
:105FD00008F2100409D508EB0600049A059380B274
:105FE0000391FFF7F1FC059B039908F10108E8E72D
